:020000040800F2
:10000000B8E00120B5320008854B0008894B000894
:10001000C54B0008014C0008054C0008000000001A
:10002000000000000000000000000000A18C00089B
:10003000094C000800000000318D0008918D000877
:100040001533000815330008153300081533000870
:100050001533000815330008153300081533000860
:100060001533000815330008153300081533000850
:100070001533000815330008153300081533000840
:100080001533000815330008153300081533000830
:10009000153300081533000815330008117A0008DD
:1000A0001533000815330008153300081533000810
:1000B000813800082D4C000815330008153300085E
:1000C00015330008153300081533000815330008F0
:1000D00015330008153300081533000815330008E0
:1000E00015330008753A0008153300081533000869
:1000F00015330008153300081533000815330008C0
:100100001533000819D2000815330008153300080C
:10011000153300081533000815330008153300089F
:10012000153300081533000815330008153300088F
:10013000153300081533000815330008153300087F
:100140001533000815330008153300080D4C00085E
:100150001533000815330008153300084143000823
:10016000153300081533000815330008153300084F
:10017000153300081533000815330008153300083F
:100180001533000815330008044B05481B1A062BCD
:1001900002D9044B03B11847704700BF7B0D002004
:1001A000780D00200000000005490648091A891052
:1001B00001EBD171491002D0034B03B118477047CE
:1001C000780D0020780D00200000000010B5064CCE
:1001D000237843B9FFF7D8FF044B13B10448AFF3BA
:1001E00000800123237010BD280E002000000000B5
:1001F000D008060808B5084B1BB108490848AFF3FA
:1002000000800848036813B9BDE80840CCE7064BF6
:10021000002BF9D09847F7E7000000002C0E0020D3
:10022000D0080608740D0020000000002DE9F04100
:1002300082B02F4A138B9BB243F040031383138B7E
:100240009BB243F4807313832A4B1A6842F48042B2
:100250001A609A6842F440429A605A6942F08002F9
:100260005A611A6842F480521A609A6842F4405205
:100270009A605A6942F040025A615A8B92B242F037
:1002800040025A835A8B92B242F080025A8308F09D
:1002900017FD00240126F027DFF8608003F058F8EE
:1002A0000196002500953B4622462946204606F049
:1002B000B3FEC4F5A070019600953B460246294660
:1002C00006F0AAFEC4F1A00388FB0320A0EBE370B4
:1002D00003F08EFA304603F00BFB0134A02CDDD185
:1002E000054A538B9BB243F008035383FEE700BFDC
:1002F0000018024000080240000C024056555555B7
:10030000134B00E013461A688242FBD310B45968BD
:100310005C18A04203D14068014459601846446803
:1003200001198A420CD10A4A9268914206D04A6861
:10033000144444601A681268026002E0016000E040
:100340000260984218BF18605DF8044B704700BF08
:10035000440E00202DE9F041044605F0E3F94C4B32
:100360009B6823BB4B4A12F0070F07D0D11D21F029
:10037000070102F58C335B1A0A4601E04FF48C3317
:1003800043480260002141601344083B23F0070307
:10039000836059601960991A516013603E4BC3F82D
:1003A0008C18C3F890184FF00042C3F894283A4BC9
:1003B000D3F8948818EA040F55D1002C62D0083481
:1003C00014F0070F1CBF24F007040834002C4AD097
:1003D000314BD3F89078BC4245D82D4B1D6801E0D5
:1003E0002B4615466A68944202D92A68002AF7D13A
:1003F000274A9268954236D01E682A681A606B6850
:100400001B1B102B10D9281910F0070F08D04FF024
:10041000F00383F31188BFF36F8FBFF34F8FFEE7B5
:1004200043606C60FFF76CFF6A68BB1A1A49C1F839
:100430009038D1F88C188B423CBF1749C1F88C38E2
:1004400048EA02026A6000232B6016F1080519D001
:1004500022462946942000F083FD05F00FFA15F09E
:10046000070F06D111E005F009FA03F0EBFD0025B6
:100470000BE04FF0F00383F31188BFF36F8FBFF3EE
:100480004F8FFEE705F0FAF9EFE72846BDE8F08167
:10049000440E0020500E0020C41D0120B8B310B53A
:1004A000044650F8043C1A4AD2F89428134208D162
:1004B0004FF0F00383F31188BFF36F8FBFF34F8FBB
:1004C000FEE750F8081C41B14FF0F00383F31188A8
:1004D000BFF36F8FBFF34F8FFEE723EA020340F8AD
:1004E000043C05F01FF954F8042C0949D1F8903860
:1004F0001344C1F8903852422146962000F030FD56
:10050000A4F10800FFF7FCFE05F0B8F910BD704734
:10051000C41D0120C3684FF0FF325A60C3686FF0FA
:1005200080425A61C368014A9A617047000800809E
:1005300070B582B0054600230193032007F0B2FB9B
:10054000EB681A690192134C032607E0304607F066
:10055000A9FBEB681A690192013C18D0019A002AA4
:10056000F4DA019A42F001020192019A1A61E968F3
:100570000B690193074B03E00A690192013B03D029
:10058000019A12F0010FF7D1032007F08BFB002036
:1005900002B070BD400D030010B4C4786CB90333D1
:1005A00000EB8200D0F8D0409B1006D0002251F81A
:1005B000040B206001329342F9D100205DF8044B16
:1005C000704700BF70B40332D0F8D060921009D0E9
:1005D0000C460023356844F8045B01339A42F9D194
:1005E00001EB8201084670BC704700BF70B4002365
:1005F000C370012383704023838001290DD101231F
:10060000C37208230370042343704FF4A073C380A4
:10061000022303724FF0A0460CE051B90023C372CD
:100620000C230370062343704FF4A063C380234E52
:1006300000E00026C66006F500630361457895B1C9
:1006400006F5106300F1140100F1500206EB4515A8
:1006500005F5106541F8043F03F5007442F8044FB6
:100660002033AB42F6D106F58063436106F588631B
:10067000C0F8CC300178D1B106F5A06300F18C024E
:1006800006EB411404F5A06442F8043F2033A34272
:10069000FAD106F5805300F1CC0206EB013101F5E9
:1006A000805142F8043F03F580539942F9D106F591
:1006B0006066C0F80C61002070BC70470000044008
:1006C00038B50446037A012B22D10025C268936B0A
:1006D0006FF31043417A09B143F480139363E268E6
:1006E000D3686FF386136FF396536FF351436FF331
:1006F000D343D3602046FFF71BFFE378012B25D1BE
:10070000052363F3440545F02005E3689D6012E08E
:10071000C268D36843F04003D360FFF709FF637AF0
:10072000002B0CBF4FF434134FF47413E26893633F
:10073000142007F0BDFAE378012B07D1E3689D6828
:10074000052262F3440545F020059D60002038BD78
:10075000C268936843F0010393600020704700BFB4
:10076000C268936823F0010393600020704700BFC4
:1007700000B583B000230193019B43F02003019354
:10078000019B61F38A130193C368019A1A61C168DE
:100790000B690193084B03E00A690192013B03D006
:1007A000019A12F0200FF7D1032007F07BFA002006
:1007B00003B05DF804FB00BF400D030000B583B03B
:1007C00000230193019B43F010030193C368019A36
:1007D0001A61C1680B690193084B03E00A69019231
:1007E000013B03D0019A12F0100FF7D1032007F05C
:1007F00059FA002003B05DF804FB00BF400D030070
:1008000008B5C268D3686FF35D736FF39E730129F7
:1008100002D143F0005302E009B943F08043D360B2
:10082000322007F045FA002008BD00BFC3685B69AD
:1008300013F0010F0CBF012000207047C3685869F6
:1008400000F00100704700BFC36858699B691840F9
:10085000704700BF4269136861F30103136070477A
:10086000D0F8CC30186820F02E00704743695869E2
:10087000704700BF38B50546FFF7F2FF40F48074BB
:10088000D5F8CC301C600A2007F012FA6FF3082468
:10089000D5F8CC301C60142007F00AFA012038BDCE
:1008A00086B000EB8101D1F89020136843F04043FB
:1008B00013F4802F07D1C168C96AC1F3074149B950
:1008C0006FF3DF7306E041690969C1F3074109B9B4
:1008D0006FF3DF731360002006B0704710B400227E
:1008E0004FF00043012464F3DC4300EB8101D1F8B5
:1008F00090000361D1F890100B6843F0004362F35D
:100900009E730B6010465DF8044B704702691368D4
:1009100061F301031360704738B505460024C368CE
:100920009C61C3686FF080425A61FFF7F3FDEB787A
:10093000A34208BF102444F4701444F4605444F0FB
:100940000804EA6893691C439461002038BD00BF25
:1009500070B504460025D0F80C311D60026913689B
:1009600065F3CC231360C37A012B20D12E460321DB
:10097000FFF7CCFFE26880235362C0F2400563F3C7
:100980000F05E2689562C02262F30F0663F31F460B
:10099000E368C3F804614FF4A07363F30F066FF3C9
:1009A0001F46E368C3F80861E368C3F80C611021CF
:1009B0002046FFF7DDFE2046FFF700FF22690023F7
:1009C00013612269536122694FF0FF3191612269FD
:1009D000D3616378002B38D004F1140200210E4655
:1009E000FF2552F8043F1B68C3F3076323F07F031E
:1009F000DBB2002B0CBF00204FF090401368186052
:100A000013681E6113689D60013163788B42E8D8DA
:100A1000DBB104F1500200210E46FF2552F8043FDD
:100A20001B68C3F3076323F07F03DBB2002B0CBF0B
:100A300000204FF090401368186013681E6113681F
:100A40009D60013163788B42E8D82269136943F4D1
:100A500080731361E378012B09D10323402262F3F1
:100A60008A0343F4803362F35943226913632046B7
:100A7000FFF752FF002070BD03699B68C3F3410379
:100A8000022B04D001D8012B03D102207047012092
:100A900070470320704700BF03699B688269116833
:100AA000C3F34103022B12BF6FF30A01032363F365
:100AB0000A0111600269536843F480735360002097
:100AC000704700BF30B400244B78012B08D10D785B
:100AD00000EB85039A690123AB4063F30F0407E041
:100AE0000D7800EB85035A6D0123AB4063F31F447F
:100AF000136813F4004F0DD18D6865F30A03CD78A8
:100B000065F39343C98861F3995343F0805343F4E9
:100B1000004313600269D3692343D361002030BCD2
:100B2000704700BF30B4002214464B78012B08D127
:100B3000097800EB81039D6901238B4063F30F0467
:100B400007E00B7800EB83014D6D0121994061F3C3
:100B50001F446FF3CF322A600269D36923EA04038A
:100B6000D361002030BC704770B54B78012B52D157
:100B70000B7800EB83039B691A681C694B692BB9DE
:100B80006FF31204012363F3DC440DE063F31204FA
:100B90008D682B44013BB3FBF5F363F3DC44CB7866
:100BA000012B08BF63F35E740B7800EB83039B6932
:100BB0001C61C378012B06D10B7800EB83039B6982
:100BC0000C695C610BE0CB78012B0BD04B6993B1C6
:100BD00005696C6B0E780123B34023436B63CB78BC
:100BE000012B08D103699B6813F4807F0CBF42F08E
:100BF000005242F0805242F004420B7800EB830333
:100C00009B691A60CB78012B40D18B8A0A78C9681E
:100C1000FFF7C2FC3AE00B7800EB83035B6D1A68C8
:100C20001C694B6933B98B6863F31204012363F3C6
:100C3000DC440CE08D682B44013BB3FBF5F3C3F3BC
:100C4000090363F3DC4405FB03F363F312040B783D
:100C500000EB83035B6D1C61C378012B05D10B781E
:100C600000EB83035B6D0C695C61CB78012B06D1D3
:100C70004B7913B142F0005201E042F0805242F051
:100C800004420B7800EB8300436D1A60002070BDB6
:100C900030B482B04B78012B47D182691368146954
:100CA00000944C696CB99DF800406FF306048DF810
:100CB00000409DF80240012565F3C4048DF8024010
:100CC00017E08D68AC4207D94D619DF8004065F38F
:100CD00006048DF8004005E09DF8005064F3060519
:100CE0008DF800509DF80240012565F3C4048DF88D
:100CF0000240009C1461C478012C05D10C7800EBF3
:100D00008404A4690D69656143F004431360C378EA
:100D1000002B47D14B69002B44D00069426B097806
:100D200001238B40134343633CE00B7800EB8303C8
:100D30005A6D1368126900924A6972B98C689DF8FD
:100D4000002064F306028DF800209DF802200124A3
:100D500064F3C4028DF802200EE08C684C619DF8AB
:100D6000002064F306028DF800209DF80220012483
:100D700064F3C4028DF802200A7800EB8202526DFF
:100D8000009C1461C278012A05D10A7800EB820226
:100D9000526D0C69546143F004430A7800EB820001
:100DA000426D1360002002B030BC70474B78012BBD
:100DB0000CD10B7800EB830082691368002BB8BF5D
:100DC00043F0804343F40013136007E00B7800EB1B
:100DD0008300426D136843F40013136000207047D2
:100DE0004B78012B0B7800EB83000CBF8069406DC2
:100DF00002686FF35552CB78023BDBB2012B98BFF0
:100E000042F0805202600020704700BF0369986979
:100E1000DB691840000C704700EB81014B6D9A684C
:100E2000036958691040704703699869DB69184085
:100E300080B2704782B000230093C0238DF8033046
:100E40004FF00003012262F3C4038DF8023018232F
:100E50008DF80030436D009A1A61C378012B08D1D8
:100E6000436D00F2CC525A61436D1A684FF08022F4
:100E70001A6002B0704700BF38B505460C46FF281F
:100E800008D04FF6FF73984204D00C4803F0C6FA1E
:100E9000204638BDA5420FD203F0E4FA48B1012341
:100EA000037024EA0503190A41701B0C438003F008
:100EB0003BFC05EA040038BD204638BD1445030854
:100EC000002840D0204A1268002A3CD070B5044661
:100ED0000F2803D91D4803F0A1FA70BD1C4B1B68F5
:100EE0001BB11C4803F09AFA70BDEFF31085012383
:100EF00083F31088164A136801331360164B1B687E
:100F00001B6BCBB100F12103DA1014498A5C03F0AA
:100F1000070342FA03F313F0010F0DD14FF6FF70F0
:100F200003F016FC064603F09DFA28B10222027077
:100F30004680447003F0F8FB054A1368013B1360D8
:100F400085F3108870BD70470000002050450308ED
:100F5000F82701209045030874270120EC27012081
:100F60002DE9F8432A4B1C68002C4FD082EAE27628
:100F7000A6EBE276EFF31085012383F31088254F6B
:100F80003B6801333B60244B1F683A441A60236B73
:100F9000002B35D0204B93F9043013B91E4B5B79ED
:100FA00073BB88460746FF2003F0D2FB81463146DB
:100FB0004FF6FF70FFF760FF064603F053FA044652
:100FC000F0B180F8019000230370468003F0ACFB81
:100FD00041464FF6FF70FFF74FFF064603F042FA17
:100FE000034668B1468000224270F8B2421C1A7073
:100FF000207003F099FB064B1B68074A12681A65BC
:10100000044A1368013B136085F31088BDE8F88338
:1010100074270120F82701205C260120F8B504463A
:10102000FE2803D92A4803F0F9F9F8BD0846062935
:1010300003D9284803F0F2F9F8BD274B1B6859186B
:1010400091F86410914203D2244803F0E7F9F8BD07
:101050002349096819B1234803F0E0F9F8BD224992
:101060008979002932D0EFF31085012181F31088AE
:101070001B4E3168013131601B6B0BB31A4B93F976
:10108000043013B9184B5B79D3B9D6B2314605F0A9
:10109000E5FDA8B9E308154AD35C04F00702134143
:1010A00013F0010F0CD14FF6FF7003F051FB074610
:1010B00003F0D8F920B147800470467003F034FB88
:1010C000074A1368013B136085F31088F8BD00BF21
:1010D00000460308344603087427012078460308B5
:1010E000F8270120BC4603085C260120FC270120CC
:1010F0002DE9F0410446FE2804D9304803F08EF96A
:10110000BDE8F08108461E46062904D92C4803F0A4
:1011100085F9BDE8F0812B4B1B68591891F86410D4
:10112000914204D2284803F079F9BDE8F0812749BB
:10113000096821B1264803F071F9BDE8F081EFF3A9
:101140001085012181F31088204F39680131396001
:101150001B6B53B31F4B9B793BB31E4B5B791BB18E
:101160001C4B93F9043003B3D7B2394605F076FD32
:10117000D8B9E308184AD35C04F00702134113F00E
:10118000010F12D1FF2003F0E3FA80463146FF2021
:10119000FFF772FE064603F065F930B180F8038070
:1011A00004704770867003F0BFFA084A1368013B69
:1011B000136085F31088BDE8F08100BFF446030892
:1011C0002C4703087427012078470308F8270120DB
:1011D000C84703085C260120FC270120F8B5FE283B
:1011E00003D9234803F01AF9F8BD04460E46214BF3
:1011F0001B681BB1204803F011F9F8BDEFF310850F
:10120000012383F310881B4A1368013313601B4BBF
:101210001B681B6B23B31A4B9B790BB3184B5B7981
:101220001BB1174B93F90430D3B1E308154AD35CD3
:1012300004F00702134113F0010F11D1FF2003F056
:1012400087FA074631464FF6FF70FFF715FE064650
:1012500003F008F920B147700470468003F064FA87
:10126000044A1368013B136085F31088F8BD00BF82
:1012700000480308F8270120544803087427012078
:101280005C260120FC27012070B5062903D91248ED
:1012900003F0C4F870BD06460C46104B1D686B1871
:1012A00093F86430834203D20D4803F0B7F870BD61
:1012B0002B6B83B103F0F0F8284400218C3003F04D
:1012C00071FB054603F0CEF828B10834047046706F
:1012D000458003F029FA70BD8C480308742701206B
:1012E000DC48030870B5062903D91D4803F096F8B9
:1012F00070BD05460C461B4B1B685A1892F86420BB
:10130000824203D2184803F089F870BD1B6B33B3D7
:1013100003F0A8F8064610B3032C0ED1032128468B
:1013200003F0BAF80F4B1B681A1992F86C20184496
:10133000104490F88D3073700DE02146284603F07C
:10134000ABF8084B1B681A1992F86C20184410442B
:1013500090F88C3073701034347003F0E5F970BD80
:1013600028490308742701208049030838B504463A
:10137000062803D90E4803F051F838BD0846154633
:101380000C4B1B68234493F864308B4203D20A4809
:1013900003F044F838BD214603F07EF8054B1B6886
:1013A0001C4494F86C201844104480F88D5038BDCB
:1013B000D049030874270120184A030810B50446D1
:1013C000062804D90F4803F029F8002010BD08466C
:1013D0000D4B1B68234493F864308B4204D20B48B6
:1013E00003F01CF8002010BD214603F055F8064B11
:1013F0001B681C4494F86C201844104490F88D002D
:1014000010BD00BF584A030874270120A04A0308F2
:1014100038B50446062803D90E4802F0FFFF38BD50
:10142000084615460C4B1B68234493F864308B42E6
:1014300003D20A4802F0F2FF38BD214603F02CF82F
:10144000054B1B681C4494F86C201844104480F829
:101450008C5038BDE04A030874270120244B030850
:1014600010B50446062804D90F4802F0D7FF002023
:1014700010BD08460D4B1B68234493F864308B4223
:1014800004D20B4802F0CAFF002010BD214603F031
:1014900003F8064B1B681C4494F86C201844104455
:1014A00090F88C0010BD00BF604B0308742701202A
:1014B000A44B0308F8B50F2803D9264802F0AEFF65
:1014C000F8BD044600F12103DA1023498A5C03F0D9
:1014D000070342FA03F313F0010F14BF01230023A3
:1014E0001E4A5371EFF31085012282F310881C49C4
:1014F0000A6801320A60194A9279824223D0194A55
:101500001268126BFAB1F3B94FF6FF7003F020F9CD
:101510000746124B9C7102F0A5FF064698B10F4B8F
:1015200099790320FFF79CFF01280CBF07230623AE
:101530003370778074700122084B99790320FFF78C
:1015400067FF03F0F1F8064A1368013B136085F367
:101550001088F8BDE04B0308EC2701205C26012031
:10156000F82701207427012008B50B4B1B6893F85E
:101570006730834203D2094802F050FF08BD0321BF
:1015800002F08AFF044B1B6893F86F201844104444
:10159000002380F88C3008BD74270120244C0308F8
:1015A00070B5044603681D2B06D0262B00F0E080A2
:1015B0000F2B40F0C382B9E26FF07F4140680EF01C
:1015C00013FC40F6F501606816F0CEFD0546C049F3
:1015D00012F084F80D21284612F02CF9BD49284656
:1015E00012F0BCF840F6F601606816F0BDFD064644
:1015F000B94913F0A9FEB94D2946304613F0D6FE7D
:1016000040F60411606816F0AFFD0646B44913F0C9
:101610009BFE2946304613F0C9FE40F6051160686E
:1016200016F0A2FD0646AF4913F08EFE294630465D
:1016300013F0BCFE40F60611606816F095FD0646F4
:10164000A94913F081FE2946304613F0AFFE40F65B
:101650000711606816F088FD0646A44913F074FE71
:101660002946304613F0A2FE40F60811606816F0D5
:101670007BFD06469E4913F067FE2946304613F06F
:1016800095FE40F60911606816F06EFD0646294683
:1016900013F08CFE9749304613F056FE40F60B11BE
:1016A000606816F061FD0646934913F04DFE294629
:1016B000304613F07BFE40F60A11606816F054FDC8
:1016C00006468E4913F040FE2946304613F06EFE62
:1016D00040F60C11606816F047FD0646884913F085
:1016E00033FE2946304613F061FE40F60D11606866
:1016F00016F03AFD0646834913F026FE2946304689
:1017000013F054FE40F60E11606816F02DFD0646EB
:101710007D4913F019FE7D4D2946304613F046FEF3
:1017200040F60F11606816F01FFD0646784913F069
:101730000BFE2946304613F039FE40F61111606861
:1017400016F012FD0646734913F0FEFD2946304699
:1017500013F02CFE4FF41161606816F005FD04468D
:101760006D4913F0F1FD2946204613F01FFE70BDB0
:10177000806816F0BFFBE368A0F6F6001B2800F2B5
:10178000DF81DFE810F01C00DD01DD01DD01DD019E
:10179000DD01DD01DD01DD01DD01DD01DD01DD0159
:1017A000DD012800340040004C0058006400700047
:1017B0007C008800D100F30023015501C001012BFA
:1017C00040F0BE8140F6F501606816F0CDFC42495C
:1017D00011F0D0FE70BD012B40F0B28140F6F50152
:1017E000606816F0C1FC3E4911F0C4FE70BD012BCB
:1017F00040F0A68140F6F501606816F0B5FC394965
:1018000011F0B8FE70BD012B40F09A8140F6F50151
:10181000606816F0A9FC344911F0ACFE70BD012BD4
:1018200040F08E8140F6F501606816F09DFC2F496E
:1018300011F0A0FE70BD012B40F0828140F6F50151
:10184000606816F091FC2A4911F094FE70BD012BDE
:1018500040F0768140F6F501606816F085FC254978
:1018600011F088FE70BD012B40F06A8140F6F50151
:10187000606816F079FC214911F07CFE70BD012BE7
:1018800040F05E8140F6F501606816F06DFC1A4983
:1018900011F070FE70BD012B40F052812D221F4BC4
:1018A0001A7040F6F501606816F05EFC05461C4CA7
:1018B0000A22214611F022FF20462AF027FE194B6A
:1018C00083ED000B0249284611F008FF70BD00BFF0
:1018D000C4860408CC390508484E0308942D050831
:1018E0004C4E0308504E0308544E0308DC1B0508F9
:1018F000584E03085C4E0308604E0308644E03080C
:101900003C1C0508684E03086C4E0308BC7C0508A7
:10191000704E0308744E0308784E030863260120B6
:10192000F0390120E8390120012B40F009812B22F8
:10193000844B1A7040F6F501606816F015FC0546F8
:10194000814C0A22214611F0D9FE20462AF0DEFD04
:101950007E4C53EC102BD4E900012AF017F8C4E9AF
:1019600000017B49284611F0B9FE70BD012B40F003
:10197000E7802A22734B1A7040F6F501606816F072
:10198000F3FB04460A22704911F0B8FE002200233E
:101990006E49D1E900012AF013FC60B96A482AF0C7
:1019A000B5FD6A4D53EC102BD5E900012AF0A0F9E2
:1019B000C5E9000105E064482AF0A8FD634B83ED0A
:1019C000000B6349204611F089FE70BD012B40F0E9
:1019D000B7802F225B4B1A7040F6F501606816F055
:1019E000C3FB06460A22584911F088FE574BD3E93B
:1019F000004500220023204629462AF0E1FB60B979
:101A000051482AF083FD53EC102B204629462AF03A
:101A100099FA4E4BC3E9000105E04B482AF076FDE8
:101A20004A4B83ED000B4A49304611F057FE70BD1A
:101A3000012B40F0858040F6F501606816F094FBBC
:101A40000646404B1B782A3B052B4BD8DFE803F0BA
:101A500027034A154A393C4C0A22214611F04EFE12
:101A600020462AF053FD394C53EC102BD4E90001E9
:101A700029F08CFFC4E9000134E0334C0A222146EE
:101A800011F03CFE20462AF041FD304C53EC102B67
:101A9000D4E9000129F078FFC4E9000122E02A4CD2
:101AA0000A22214611F02AFE20462AF02FFD274C5B
:101AB00053EC102BD4E900012AF01AF9C4E9000113
:101AC00010E0214C0A22214611F018FE20462AF08F
:101AD0001DFD1E4C53EC102BD4E900012AF032FA04
:101AE000C4E90001194C1B4DD4E900231A492846CA
:101AF0002BF07CF92946304611F0F0FD002200233E
:101B0000C4E9002370BD012B1AD140F6F5016068CD
:101B100016F02AFB0E4911F0E1FD002000210B4BCD
:101B2000C3E900010022074B1A7070BD07F0C8F826
:101B30000A4809F017FA07F0E5F870BD18F024FD1F
:101B400070BD00BF63260120F0390120E839012073
:101B5000C4860408FC3901207C4E0308844E030827
:101B600000B583B016F034FB0023019300930346C5
:101B7000034A1121034812F077FF03B05DF804FB1C
:101B8000A11500086C4C03082DE9F04184B0FFF763
:101B9000E7FF1A4B186808B103F0FEFC0022174B50
:101BA0001A60174DDFF86C80164F1DF043FDF0B141
:101BB0002B68B3F57A7F1CDD0024039402940F4B4D
:101BC00001930626009623464FF40072414638469C
:101BD00003F0C6FB039402940B4B0193009623463B
:101BE0004FF4007209490A4803F0BAFB01E00023F0
:101BF0002B60642003F0C4FED7E700BF74320120DD
:101C00008C670120DD2300084C370120984E030823
:101C10008D6B0008904E030808B501214FF4006059
:101C200002F0A2FF00214FF4006002F09DFF08BD0A
:101C300010B40B4C6268816843681943C368194348
:101C4000036819430369194322F4FD4323F07F031A
:101C50000B43027D134363605DF8044B704700BF84
:101C6000002C0140014B1860704700BFA080254246
:101C7000014B1860704700BF002C0140024B1868F0
:101C800000F00300704700BF002C014010B403684F
:101C9000094A9360D36823F4FF6323F00703446881
:101CA00081680C43C1680C43016921430B43D36035
:101CB0005DF8044B704700BF002C0140014B1869D0
:101CC000C0B27047002C014082B000230193034B47
:101CD00003440193019B186802B07047142C014023
:101CE00010B4036809494B6243688B62CB6A23F0E6
:101CF000F7028468C3681C430369234340690343B4
:101D00001343CB625DF8044B704700BF002C0140C9
:101D1000014BD3F880007047002C0140014BC3F801
:101D200080007047002C014021B1054BDA6B104355
:101D3000D8637047024AD36B23EA0000D063704730
:101D4000002C0140034B5B6B034214BF01200020B9
:101D5000704700BF002C0140014B9863704700BFE3
:101D6000002C0140034B5B6B034214BF0120002099
:101D7000704700BF002C0140014B9863704700BFC3
:101D8000002C014038B5044603681D2B04D0262BD7
:101D900031D00F2B3BD132E006F092FF1D4809F005
:101DA000E1F806F0AFFF40F60B01606816F0DCF9D1
:101DB000054619490EF0F8FA6FF07F4128460EF0FB
:101DC0008BFA40F60E01606816F0CEF9054613490D
:101DD0000EF0EAFAFF2128460EF07EFA0E21284680
:101DE0000EF096FA40F61201606816F0BDF94A212D
:101DF0000EF090FD38BD806816F07CF838BD06F016
:101E00005FFF044809F0AEF806F07CFF38BD18F01B
:101E1000BBFB38BD844E0308585A0508A03E050890
:101E200000B583B016F0D4F9002301930093034664
:101E3000034A0921034812F017FE03B05DF804FBC2
:101E4000851D0008B84E03082DE9F04FADF2D44DC2
:101E50000024ADF8CE4406F033FF2246B54913A85E
:101E600008F0FEFCB449A0A808F096FFB34B11930C
:101E7000FF23129300E001340BA9A0A808F0CEFFC5
:101E800018B99DF83530002BF5D1A0460994E3B27E
:101E900001252E461F4624E04146002002F0BCF8F2
:101EA00008F1FF33002B12DDBDF8CE24A44B08EB64
:101EB000030E0EF1FF3E002113F801CF604504BF71
:101EC000294632467345F7D109B1ADF8CE24BDF8A5
:101ED000CE341BB99B4B1855274602E00023ADF8C2
:101EE000CE347C1EE4B2002FD6D108970023ADF883
:101EF000CE3406F007FF94481CF052FAFFF790FF2B
:101F00000390924B6D221A7075225A7073229A7048
:101F10006922DA7063221A712F225A718C4B186869
:101F200008B103F039FB0024894B1C6040F60B011B
:101F3000039D284616F018F9049040F61201284631
:101F400016F012F940F60A01284616F00DF940F68F
:101F50000801284616F008F9074640F60901284608
:101F600016F002F9009040F61101284616F0FCF830
:101F70000190A146012305930694A3469A46DFF8F3
:101F8000E881744C52E000200BF0FEFB06F098FE56
:101F90000DF2CE434FF480626F49AAA808F03CFDD1
:101FA00040BB28460EF0E2FC079001200BF0F8FB46
:101FB000BDF8CE3473B1694E002516F8010F0BF051
:101FC000FBFB236913F4807FFBD00135BDF8CE34D1
:101FD000AB42F2DC00200BF0E3FB9DF81C100A463C
:101FE0000B200BF01DFCBDF8CE34B3F5806F38BF6D
:101FF0004FF0010A0BF03EFC0BF094FC4FF47A73A7
:1020000003FB00F00028B8BF0730C010069B93FB0D
:10201000F0F504200BF05EFC642303FB00F191FB60
:10202000F5F102980EF016FE06F06CFED8F81030AE
:1020300013F0400F19D1D8F8103013F0400FFAD038
:10204000059B4BB1464B1B8B9BB243F40073444A38
:1020500013830023059308E0414B5B8B9BB243F451
:1020600000733F4A538301230593384612F046FF1D
:1020700030B1384612F042FF0028FAD14FF0010A81
:10208000019812F03BFF30B1019812F037FF0028A1
:10209000FAD18BF0010B009812F030FF38B10098A4
:1020A00012F02CFF0028FAD1A9F1020902E0BAF1DE
:1020B000010F78D106F004FE09F10109099B4B4597
:1020C00008BF4FF000091D4B1193FF231293254DBC
:1020D00005F164012B46002203F8012F8B42FBD14E
:1020E0001549A0A808F058FE164B13F809305BB14B
:1020F000089E144F0BA9A0A808F090FE0136F6B276
:1021000017F80930B342F5D10BA9A0A808F086FE54
:10211000A8BB9DF8353093B306F0F4FD119B1A78F7
:1021200022B305F8012F013311931A78002AF8D150
:1021300025E000BFC4860408B44F030864260120CC
:102140000F3A0120103A0120585A05080C3B012093
:102150007432012000000240783B0120773B0120CF
:1021600000040240113B0120001002400DAB0DF1B4
:10217000410213F8011F05F8011F9342F9D10BF03A
:1021800091FB06F09DFD1E4D01222946AAA808F0EC
:1021900099FBAD9B069306F0B5FDA91D04980EF0C2
:1021A000D1F84FF0000AC82003F0EAFB40F60B011B
:1021B000039E304615F0D8FF049040F612013046D9
:1021C00015F0D2FF054640F60A01304615F0CCFF67
:1021D000029040F60801304615F0C6FF074640F66B
:1021E0000901304615F0C0FF009040F6110130465D
:1021F00015F0BAFF0190BBF1000F3FF417AFC2E634
:102200000C3B012008B54FF4C821034821F0ECFC39
:1022100002481EF0ADFF08BD00000068545D0508CF
:1022200070B584B0456803681D2B71D00446262B19
:1022300003D00F2B40F093808AE0806815F05AFE9F
:1022400040F6D103984240F08D80E368042B40F0C3
:102250008980A06812F03EFB044640F261112846D6
:1022600015F082FF04EB44023F4B03EB82039968B5
:102270000EF068F8013C052C74D8DFE804F0110377
:10228000731F2D3B002303930293384A01920722C8
:1022900000924FF480623649364803F061F861E0FD
:1022A000002303930293344A0192072200924FF4D1
:1022B00080623249324803F053F853E0002303931D
:1022C0000293304A0192072200924FF480622E4915
:1022D0002E4803F045F845E00023039302932C4A6F
:1022E0000192072200924FF400622A492A4803F023
:1022F00037F837E0002303930293284A019207221C
:1023000000924FF400622649264803F029F829E09C
:1023100040F6D101284615F027FF0546124C04F17E
:102320006C06626854F80C1B284612F01FFAB4427F
:10233000F7D10F220021284612F0A4FA1A4A0121EF
:10234000284612F063FA1949284612F07FFA09E08C
:1023500006F0B6FC164808F005FE06F0D3FC204651
:1023600018F012F904B070BDF84F0308503901207D
:10237000307D0408FD2900085C390120387D0408FF
:1023800095E300081C340120407D04086D9400088A
:1023900054390120A04E0308891B00086039012030
:1023A0004C7D0408491E00080000FFC0FCE9050838
:1023B000844E030800B583B015F00AFF0023019393
:1023C00000930346034A0221034812F04DFB03B079
:1023D0005DF804FB212200086450030808B5FFF7EC
:1023E000E9FF164B186810B103F0D6F80AE0144B59
:1023F000186810B103F0D0F804E0124B186818B157
:1024000003F0CAF8642412E00F4B186810B103F00F
:10241000C3F8F7E70D4B186810B103F0BDF8F1E70A
:102420000B4B18680028EDD003F0B6F8EAE71DF072
:1024300099FA204603F0A4FAF9E700BF5C390120BD
:10244000183401201034012058390120603901204E
:102450005439012008B502482AF0A2FC08BD00BF8B
:10246000647E040808B510B1012804D007E00648CE
:102470002AF096FC08BD05482AF092FC08BD0448E5
:102480002AF08EFC08BD00BF787E04088C7E04080C
:10249000A07E040808B502482AF082FC08BD00BFEF
:1024A000B87E040808B502482AF07AFC08BD00BFCF
:1024B000D07E040808B502482AF072FC08BD00BFAF
:1024C000E47E040808B502482AF06AFC08BD00BF93
:1024D000F87E040808B502482AF062FC08BD00BF77
:1024E0000C7F040830B585B004460D46038A9BB2C4
:1024F00023F44053CA881343038283899BB223F495
:10250000B05323F00C0289882B890B4369890B4354
:102510009BB213438381838A9BB223F44073AA89BD
:1025200013438382684602F07FFA1C4B9C4203D01F
:1025300003F580639C4201D1039B00E0029BA289CA
:1025400012F4004F03EB830303EB8303296814BFEA
:1025500049008900B3FBF1F1114BA3FB012358099A
:102560000501642300FB1313A28912F4004F09D064
:10257000D90032310A4AA2FB0131C1F3421242EAC8
:10258000050307E01B013233054AA2FB0323C3F313
:1025900043132B439BB2238105B030BD0010014093
:1025A0001F85EB5129B183899BB243F4005383818A
:1025B0007047838923F400531B041B0C83817047ED
:1025C000C1F308018180704710B4C1F3421401F0D7
:1025D0001F01012303FA01F19C4201D10C3003E0F9
:1025E000022C0CBF103014301AB10368194301607B
:1025F00003E0036823EA010101605DF8044B7047C2
:1026000010B4C1F3421201F01F040123A340012AB8
:1026100003D1828992B2134005E0022A0CBF028ADC
:10262000828A92B21340028892B243B1090A01230E
:1026300003FA01F10A4214BF1846002000E000200E
:102640005DF8044B704700BF2DE9F04385B00446A8
:1026500003681D2B2DD0262B00F0B4800F2B40F0EB
:10266000638106F02DFBB34CB34B0193B34B009346
:102670002346B34AB349002000F00CFE00F05CFD95
:10268000B14B187006F03EFB2378063BDBB20D2BF6
:1026900007D806F015FBAD4808F064FC06F032FBE5
:1026A00044E106F00DFBAA4808F05CFC06F02AFBAA
:1026B0003CE106F005FBDFF87C929F4B01939F4FB6
:1026C00000974B469E4A9F49002000F0E3FD06F02C
:1026D00019FB4FF07F4160680DF086FB40F6F60174
:1026E000606815F041FD9B4D294612F0EBFB40F66A
:1026F0006A01606815F038FD294612F0E3FB40F6E8
:102700006901606815F030FD934D294612F0DAFB3F
:1027100040F66B01606815F027FD294612F0D2FBE8
:1027200040F66C01606815F01FFD8C4912F002FA4A
:1027300040F6F501606815F017FD05460E210DF015
:10274000E7FDDFF82C82414628460DF02DFE844E31
:1027500099F80020314603A82AF048FB03A928462F
:102760000DF0F0FD002128460DF0B6FD40F66201A7
:10277000606815F0F9FC05460E210DF0C9FD4146D3
:1027800028460DF011FE3A78314603A82AF02EFBB8
:1027900003A928460DF0D6FD002128460DF09CFD2A
:1027A00040F66301606815F0DFFC04466D490DF0EA
:1027B000FBFD6D4920460DF0C5FD0E2120460DF0B4
:1027C000A7FDB3E0806815F095FBE26840F66B0367
:1027D000984264D008DC40F66903984229D040F65C
:1027E0006A03984240D0A1E040F66C03984271D051
:1027F00040F6F603984240F09980012A40F0968016
:1028000040F6F501606815F0AFFC0546574C4FF4F3
:10281000FA7221460DF0E4FD204629F07BFE421CB1
:102820004F4903A82AF0E2FA03A928460DF08AFDD1
:102830007CE0012A7AD140F6F501606815F094FC3D
:1028400005464A4C4FF4FA7221460DF0C9FD204668
:1028500029F060FE421E424903A82AF0C7FA03A9E4
:1028600028460DF06FFD61E0012A5FD140F662015C
:10287000606815F079FC05463C4C4FF4FA7221462D
:102880000DF0AEFD204629F045FE421C344903A858
:102890002AF0ACFA03A928460DF054FD46E0012ABF
:1028A00044D140F66201606815F05EFC05462F4C8D
:1028B0004FF4FA7221460DF093FD204629F02AFECE
:1028C000421E274903A82AF091FA03A928460DF0D1
:1028D00039FD2BE0052A29D110221821D22000F041
:1028E000D5F940F6F501606815F03EFC1F4D4FF438
:1028F000FA7229460DF074FD284629F00BFE00F00F
:10290000F5FB40F66201606815F02EFC4FF4FA7298
:1029100029460DF065FD284629F0FCFD00F05AFB24
:10292000002000F0F3FA01E017F02EFE05B0BDE83C
:10293000F08300BF813F01207C3F0120803F0120C8
:102940007E3F0120823F01207F3F0120844E03080B
:102950004C840408A529000875290008C4860408C9
:1029600058840408008F050860840408189D01201D
:10297000141D050808B54368052B0DD1006812F039
:10298000BDFA20B105481BF047FD1EF02DFC0022CA
:10299000114603481DF0C4FE002008BD0000FF10D2
:1029A000247F040808B54368052B0DD1006812F098
:1029B000A5FA20B105481BF02FFD1EF015FC0022E2
:1029C000114603481DF0ACFE002008BD0000FF10BA
:1029D000387F040800B583B015F0FAFB002301939B
:1029E00000930346034A0A21034812F03DF803B05E
:1029F0005DF804FB492600084C7F040808B5FFF782
:102A0000E9FF084B1860084B186808B102F0C4FDD4
:102A10000022054B1A606424204602F0B1FF1CF02E
:102A2000A1FFF9E7783F012074320120F8B50F4685
:102A300016461C46069D2B4622463146384604F073
:102A40004DFAE41B002CB8BF6442A81B0028B8BF95
:102A50004042079900FB04F000F098FEF8BD00BF6B
:102A600008B50C4A1921002019F0CCFC00231A46A5
:102A700009490A481EF082FAF0224FF4A0710020A2
:102A800019F058FCF0224FF4A071002019F038FC26
:102A900008BD00BF2D2A00086CF70508CCF3050817
:102AA000012904D108B504F0BFF9002008BD4FF09A
:102AB000FF307047F8B506460F4601211A4808F066
:102AC00055FB1A4D184C2946204608F097FB002864
:102AD000F9D00022D021144808F064FB144D124CA8
:102AE0002946204608F08AFB0028F9D039460E48CE
:102AF00008F07EFB0F4D0C4C2946204608F07EFB6B
:102B00000028F9D03178084808F072FB094D064CCE
:102B10002946204608F072FB0028F9D0012102481E
:102B200008F032FBF8BD00BF005400400100030074
:102B300082000700840007002DE9F041074688461F
:102B400014463B4E4FF400352946304608F064FBEE
:102B50000028F9D10121364808F008FB354E344DE4
:102B60003146284608F04AFB0028F9D00022D0213F
:102B70002F4808F017FB304E2D4D3146284608F0FF
:102B80003DFB0028F9D02A4D0121284608F0E0FA43
:102B90004146284608F02CFB284E3146284608F0CE
:102BA0002DFB0028F9D00121214808F0DFFA214E41
:102BB0001F4D3146284608F021FB0028F9D001229C
:102BC000D0211B4808F0EEFA1D4E194D314628461B
:102BD00008F014FB0028F9D01A4E154D1FE04FF0F5
:102BE0000008012C0ED14146284608F0E5FA0121E3
:102BF000284608F0C9FA3146284608F0FFFA0028AE
:102C0000EFD005E03146284608F0F8FA0028E8D071
:102C1000284608F0EFFA07F8010B013CA4B2002C9B
:102C2000DDD10121024808F0C7FABDE8F08100BFFC
:102C300000540040010003008200070084000700E8
:102C4000020003004000030070B582B004460D4648
:102C50001646012201460DF10700FFF76DFF36B160
:102C60000121A9409DF807301943C9B205E00121AF
:102C7000A9409DF8073023EA010102A800F8011DD0
:102C80002146FFF717FF02B070BD00BF2DE9F041EC
:102C900080460F46164601211A4808F067FA1A4D79
:102CA000184C2946204608F0A9FA0028F9D000223D
:102CB0004146144808F076FA144D124C2946204635
:102CC00008F09CFA0028F9D039460E4808F090FA2E
:102CD0000F4D0C4C2946204608F090FA0028F9D0F8
:102CE0003146084808F084FA094D064C294620462A
:102CF00008F084FA0028F9D00121024808F044FACB
:102D0000BDE8F08100580040010003008200070088
:102D1000840007002DE9F84380460F4691461C4683
:102D20003A4E4FF400352946304608F075FA00282F
:102D3000F9D10121354808F019FA354E334D3146A5
:102D4000284608F05BFA0028F9D0002241462F48B7
:102D500008F028FA2F4E2D4D3146284608F04EFA3D
:102D60000028F9D0294D0121284608F0F1F94946FB
:102D7000284608F03DFA284E3146284608F03EFA2B
:102D80000028F9D00121214808F0F0F9204E1F4D0C
:102D90003146284608F032FA0028F9D0012241468F
:102DA0001A4808F0FFF91D4E184D3146284608F024
:102DB00025FA0028F9D01A4E144D1FE04FF00008F4
:102DC000012C0ED14146284608F0F6F9012128468B
:102DD00008F0DAF93146284608F010FA0028EFD05A
:102DE00005E03146284608F009FA0028E8D02846D0
:102DF00008F000FA07F8010B013CA4B2002CDDD169
:102E00000121024808F0D8F9BDE8F88300580040D5
:102E10000100030082000700840007000200030095
:102E200040000300F0B583B005460C4616461F4629
:102E300001230A460DF10701FFF76CFF37B10123AB
:102E4000B3409DF807100B43DBB206E0012303FA01
:102E500006F29DF8073023EA020302AA02F8013DB8
:102E600021462846FFF712FF03B0F0BD10B5144607
:102E700001230A462146FFF74DFF10BD10B5094C4E
:102E8000D220207003221121FFF700FF842212219B
:102E90002078FFF7FBFE002302220F212078FFF7A6
:102EA000C1FF10BD6467012010B5094C2246012105
:102EB000084B1878FFF7DAFF2378C3F3021000EB12
:102EC000800003F00F0303EB4000C0B210BD00BF51
:102ED00068670120646701203B2811D808B5094ABA
:102EE000A2FB0032D30803EB8302A0EB420000EB0D
:102EF0000312D2B20121044B1878FFF7C7FE08BDB8
:102F0000704700BFCDCCCCCC646701203B2811D8E2
:102F100008B5094AA2FB0032D30803EB8302A0EBF9
:102F2000420000EB0312D2B20921044B1878FFF7DC
:102F3000ADFE08BD704700BFCDCCCCCC646701208E
:102F400010B5094C22460221084B1878FFF78EFF76
:102F50002378C3F3021000EB800003F00F0303EBB0
:102F60004000C0B210BD00BF686701206467012047
:102F700010B5094C22460A21084B1878FFF776FF56
:102F80002378C3F3021000EB800003F00F0303EB80
:102F90004000C0B210BD00BF686701206467012017
:102FA0003B2811D808B5094AA2FB0032D30803EB2D
:102FB0008302A0EB420000EB0312D2B20221044BC9
:102FC0001878FFF763FE08BD704700BFCDCCCCCCAE
:102FD000646701203B2811D808B5094AA2FB0032DA
:102FE000D30803EB8302A0EB420000EB0312D2B242
:102FF0000A21044B1878FFF749FE08BD704700BF4F
:10300000CDCCCCCC6467012010B50F4C22460321F7
:103010000E4B1878FFF72AFF01220D4B1A70227809
:10302000C2F30010810002F00F03084403EB4000DC
:1030300012F0200F04D00B2805D80C30C0B210BD00
:103040000C2808BF002010BD6867012064670120BC
:103050006567012010B50F4C22460B210E4B1878E6
:10306000FFF704FF01220D4B1A702278C2F3001003
:10307000810002F00F03084403EB400012F0200F20
:1030800004D00B2805D80C30C0B210BD0C2808BFE6
:10309000002010BD6867012064670120656701207A
:1030A00017281ED808B50C2834BF0022202203D9C7
:1030B000A0F10C03D8B202E0002808BF0C20094B95
:1030C000A3FB0013DB0803EB8301A0EB41001044DA
:1030D00000EB0312D2B20321034B1878FFF7D6FDA1
:1030E00008BD7047CDCCCCCC6467012017281ED812
:1030F00008B50C2834BF0022202203D9A0F10C030C
:10310000D8B202E0002808BF0C20094BA3FB001333
:10311000DB0803EB8301A0EB4100104400EB03123A
:10312000D2B20B21034B1878FFF7B0FD08BD7047F2
:10313000CDCCCCCC6467012010B5054C22460721CC
:10314000044B1878FFF792FE20780130C0B210BD12
:10315000686701206467012008B5002808BF0720C0
:10316000421ED2B20721024B1878FFF78FFD08BD2F
:103170006467012010B5084C22460421074B1878DB
:10318000FFF774FE2378C3F3011003F00F0300EB85
:10319000800003EB400010BD6867012064670120D8
:1031A00008B5084BA3FB0023DB0803EB8302A0EB6D
:1031B000420000EB0312D2B20421034B1878FFF750
:1031C00065FD08BDCDCCCCCC6467012010B5084CA2
:1031D00022460521074B1878FFF748FE2378C3F3F2
:1031E0000010820003F00F03104403EB400010BDF9
:1031F000686701206467012008B5431EDBB20B2B12
:103200000FD8084AA2FB0032D30803EB8302A0EBDD
:10321000420000EB0312D2B20521034B1878FFF7EE
:1032200035FD08BDCDCCCCCC6467012010B5094C70
:1032300022460621084B1878FFF718FE2378180954
:1032400000EB800003F00F0303F5FA6303EB40008B
:1032500080B210BD686701206467012070B5064622
:103260000D461446FFF7E2FF3080FFF7AFFF2870EE
:10327000FFF780FF207070BD70B506460D461446FE
:10328000FFF7C2FE3070FFF75BFE2870FFF70CFE01
:10329000207070BD70B504460D461646059A049917
:1032A0001846FFF7E9FF324629462046FFF7D6FFCA
:1032B00070BD00BF08B5114B114A9A420CD2581E7E
:1032C000801A20F0030004300E4B184453F8041BFE
:1032D00042F8041B8342F9D10B480C494FF000021D
:1032E0008842B8BF40F8042BFADBDFF824000168FD
:1032F00041F47001016000F00FFF08BD780D00205F
:1033000000000020D8080608280E0020B4A00120E4
:1033100088ED00E008B5044B1A6912F0400FFBD1AC
:10332000FCF784FFFCE700BF00100240014B18606F
:10333000704700BF00300040014B5860704700BF2D
:1033400000300040014B9860704700BF00300040E3
:103350004AF6AA22014B1A60704700BF00300040B5
:103360004CF6CC42014B1A60704700BF0030004061
:1033700020230B80004870472000002010B5044631
:10338000812108F08DF80121204608F089F82046B7
:103390000AF0E6FB002010BD10B50446FFF7EEFF73
:1033A000022340228121204608F042F802234022D5
:1033B0000121204608F03CF820460AF09DFB002041
:1033C00010BD00BF70B506460C460B7813F06005C3
:1033D0003FD0202D61D14A78FE2A02D0FF2A23D087
:1033E00033E04A88D2B9CA88012A17D113F0800F76
:1033F00014D02B4B1B689B699847C0B2294B18709F
:1034000030B10122194630460AF00CFB002545E098
:103410002146304604F090FC02253FE0214630462C
:1034200004F08AFC022539E04A8842B9CA8832B9D8
:1034300013F0800F03D10AF081FB00252EE0214616
:10344000304604F079FC022528E004F075FC0225E2
:1034500024E04B780A2B04D00B2B07D0012B1DD175
:1034600008E0012210490AF0DDFA17E04A880D4B06
:103470005A7013E0097908F0BDF82179304608F058
:103480000FF8A18802234022C9B2304607F0D0FFCE
:10349000217930460AF01EFC00E00025284670BD68
:1034A000B0000020632701206427012008B50AF03E
:1034B00079FB002008BD00BF08B50AF093FB00208F
:1034C00008BD00BF10B50446D0F8E8351B69984721
:1034D000032384F81231002010BD00BF08B590F816
:1034E000123180F81331042380F81231D0F8E83516
:1034F000DB689847002008BD08B5D0F8E435DB69E3
:1035000003B19847002008BD08B5D0F8E4351B6A20
:103510009847002008BD00BF08B5D0F8E4355B6AC5
:103520009847002008BD00BF10B504460023402284
:10353000194607F07DFF002340228021204607F036
:1035400077FF012384F81231D4F8E8355B68A0785E
:103550009847002010BD00BF10B582B004466946F0
:1035600004F0C8FB9DF8001001F01F03012B08D0E8
:1035700013B1022B0AD00EE06946204604F0EAFBA4
:103580000EE06946204604F071FD09E069462046D8
:1035900004F088FD04E001F08001204607F0EAFF16
:1035A000002002B010BD00BF10B50446002948D16C
:1035B00090F81131022B38D1D0F83821D0F82431CD
:1035C0009A4211D9D21AC0F83821C178012904D100
:1035D000D0F828110B44C0F8283192B2D4F8281141
:1035E00020460AF02FFA20E0D0F83C11B1FBF3F2AC
:1035F00003FB121262B98B420AD8D0F840319942CB
:1036000006D211460AF01EFA0023C4F840310CE03D
:10361000D4F8E435DB682BB194F81221032A01D1E8
:103620002046984720460AF02DFA94F81631012BCF
:1036300012D12369094A12685A60002384F81631AE
:103640000AE00A46D0F8E4355B692BB190F8121114
:10365000032901D111469847002010BD6C67012055
:1036600010B5044659BB90F81131032B32D1D0F874
:103670009033D0F87C23934214D99B1AC0F890332E
:10368000C178012904D1D0F880131144C0F8801307
:103690009A4228BF1A4692B2D4F8801320460AF004
:1036A000D9F917E0D0F8E4351B6923B190F812215D
:1036B000032A00D1984720460AF0D4F90AE00A46C6
:1036C000D0F8E4359B692BB190F81211032901D190
:1036D00011469847002010BDF8B504460D46164621
:1036E0001F4604F081FAC4F8E475069BC4F8E83577
:1036F000C4F8EC652946204607F050FED4F8E835BA
:103700001B689847204604F0B5FAF8BD10B504468A
:10371000D0F8E4351B689847D4F8E8359B6898479B
:10372000002010BD08B5D0F8E4355B68984700204C
:1037300008BD00BF08B505F0C3FA07F029FC10B1B9
:103740000022024B1A6005F0DDFA08BD88670120EF
:1037500008B50B4C0B4D0C4E238B9BB243F008036A
:10376000238364201AF0B2FCFFF7F2FD2B6913F4F7
:10377000805F02D13368002BEED1FCF757FDEBE7F9
:10378000000C0240000402409C00002070B590B084
:1037900005460E46144C0121204603F097FF2046B3
:1037A00003F0BEFE002301930296104A039280228A
:1037B000049205954FF400720692079308930993BB
:1037C0000A934FF440320B9204220C9202220D9283
:1037D0000E930F9301A9204603F04CFF01212046D0
:1037E00003F074FF10B070BD10640240000001804F
:1037F000F0B589B0074663230693A723ADF81430CC
:103800000026ADF81C60ADF81660104C05A92046E6
:103810000AF078FA6023ADF800300125ADF80250C7
:103820000297ADF80C60694620460AF0CBFA0821F1
:1038300020460AF0FBFA294620460AF0A7FA294654
:1038400020460AF0B1FA09B0F0BD00BF0004004004
:103850004FF08043A8221A854FF47A72DA629A896F
:1038600092B242F001029A811A8892B242F00102A9
:103870001A804FF08052014B1A60704700E100E05F
:10388000684620F007018D4601B4154A13680133DC
:103890001360144A136801331360134B1B68002B29
:1038A00003DD114A1368013B13600E4B1A6840F2A6
:1038B00014539A4202D10022094B1A60084B1A682D
:1038C00041F288339A4202D10022084B1A604FF627
:1038D000FE724FF080431A825DF8040B85467047F4
:1038E000886701208C670120846701209C000020EC
:1038F000034B18601A461368002BFCDC704700BFAE
:103900008467012008B545F25550FFF70FFD0220EE
:10391000FFF712FD40F6FF70FFF714FDFFF718FDEB
:10392000FFF71EFD08BD00BF384B4FF0AC629A6038
:103930001A6842F480321A601A46136813F4003F82
:10394000FBD040F20472324B1A60A3F58063314A17
:103950005A601A6842F080721A601A46136813F0AF
:10396000007FFBD0294A936843F4144343F00203D9
:103970009360936813F0080FFBD0274AD2F8883081
:1039800043F47003C2F88830204B1A6B42F00102F6
:103990001A631A6B42F002021A631A6B42F00402B5
:1039A0001A631A6B42F008021A631A6B42F0100293
:1039B0001A631A6B42F020021A631A6B42F040023B
:1039C0001A631A6C42F080521A641A6B42F4800235
:1039D0001A639A6B42F001029A631A6C42F0020277
:1039E0001A641A6C42F001021A645A6C42F4804262
:1039F0005A641A6B42F480521A635A6B42F04002C6
:103A00005A635A6C42F400625A64704700380240AC
:103A1000003C02401054400700ED00E030B583B098
:103A200000214FF0006007F0AFFC1C238DF804303C
:103A300000248DF805408DF8064001258DF80750CB
:103A40002A4640F225510A48FEF7BEFD47238DF86D
:103A500004308DF805408DF806408DF8075001A818
:103A600007F05AFC01A807F057FC03B030BD00BFB7
:103A700000140140684620F007018D4601B54FF45F
:103A8000805009F0C1FF4FF4003007F009FCBDE899
:103A900001408546704700BF2DE9F04782B0B94D1F
:103AA0004FF0000AC5F800A0B74FC7F800A0B74C08
:103AB000236843F040032360A36843F0C003A3607E
:103AC000636943F008036361238B9BB243F00803EF
:103AD0002383236843F480532360A36843F4405353
:103AE000A360636943F040036361DFF8AC92D9F8E7
:103AF000003043F08063C9F80030D9F8083043F053
:103B00004063C9F80830D9F8143043F40053C9F8B9
:103B10001430236843F002032360A36843F00303D7
:103B2000A3600C225146204603F052F9236843F06B
:103B300008032360A36843F00C03A3600C22012157
:103B4000204603F045F9236843F400732360A3681B
:103B500043F44073A3600C220421204603F038F99B
:103B6000236843F400632360A36843F44063A360C5
:103B70000C220521204603F02BF9236843F40003AF
:103B80002360A36843F44003A3600C220B2120466A
:103B900003F01EF9236843F000532360A36843F049
:103BA0004053A3600C220E21204603F011F9236834
:103BB00043F000432360A36843F04043A3600C221A
:103BC0000F21204603F004F9714E336843F400439B
:103BD0003360B36843F44043B3600C22072130469E
:103BE00003F0F6F8336843F400333360B36843F40A
:103BF0004033B3600C220821304603F0E9F8336803
:103C000043F400233360B36843F44023B3600C22D1
:103C10000921304603F0DCF8336843F400133360C5
:103C2000B36843F44013B3600C220A21304603F01A
:103C3000CFF8DFF86881D8F8003043F01003C8F8F7
:103C40000030D8F8083043F03003C8F80830D8F80E
:103C5000143043F00403C8F814302B6843F0080311
:103C60002B60AB6843F00C03AB60022201212846B5
:103C700003F0AEF85046FFF7BBFD2B6843F48023FA
:103C80002B60AB6843F40023AB606B6943F40073B3
:103C90006B612B8B9BB243F400732B833D4B1A68F3
:103CA00042F480021A609A6842F440029A605A69AB
:103CB00042F400625A611A8B92B242F400621A8393
:103CC0002A6842F080522A60AA6842F04052AA60F4
:103CD0006A6942F480426A612A8B92B242F480425D
:103CE0002A831A6842F480521A609A6842F4405259
:103CF0009A605A6942F040025A611A8B92B242F0BD
:103D000040021A832A6842F040022A60AA6842F000
:103D10008002AA606A6942F008026A612A8B92B244
:103D200042F008022A831A6842F480221A609A68D4
:103D300042F400229A605A6942F400725A615A8B26
:103D400092B242F400725A833B6843F480333B6082
:103D5000BB6843F44033BB607B6943F480737B6191
:103D60007B8B9BB243F480737B833B6843F480532B
:103D70003B60BB6843F40053BB607B6943F0400386
:103D80007B610DE00004024000180240000C02407C
:103D900000100240001402400008024000000240EF
:103DA0003B8B9BB243F040033B83AB6843F04053F3
:103DB000AB60EB6843F08053EB602B6843F4005337
:103DC0002B60AB6843F44053AB60022206212846C7
:103DD00002F0FEFFB36843F44053B360F36843F46A
:103DE0008053F360D8F8083043F00C03C8F808306B
:103DF000D8F80C3043F00403C8F80C30AB6843F03B
:103E00004073AB60D9F8083043F48063C9F80830D8
:103E1000D9F80C3043F48063C9F80C304FF4807348
:103E200000938DF804A08DF807A06946404602F083
:103E300081FF638B9BB243F04003638302B0BDE814
:103E4000F08700BF30B58BB0002406940794089427
:103E5000099406A801F050F900948DF8044001255A
:103E60008DF805500294039404948DF8145068461C
:103E700001F038F904F1804404F590346946204695
:103E800001F008F907232A460821204601F056F9D7
:103E90002946204601F0A0F92946204601F042F9C2
:103EA0000BB030BD30B587B00121022000F008FE14
:103EB00002238DF814308DF8153001248DF816404A
:103EC0008DF8174021464FF4001000F023FE06A99C
:103ED0004FF4107341F8083D454D284602F02AFF83
:103EE00004220621284602F073FF042209212846F5
:103EF00002F06EFFA5F5D835284607F087F8214671
:103F0000284607F067F9FF23013BFDD1394C00211A
:103F1000204607F05FF9384B00930023ADF80430DA
:103F20004BF6FF73ADF80630D023ADF808304FF4F0
:103F30008063ADF80A304FF48043ADF80C30694629
:103F4000204607F095F80121204607F001F90223E9
:103F50008DF814308DF8153001248DF816408DF849
:103F6000174021464FF4800000F0D4FD06A94FF41D
:103F7000406341F8083D1E4D284602F0DBFE042256
:103F80000A21284602F024FF04220B21284602F0D1
:103F90001FFFA5F5D635284607F038F821462846F4
:103FA00007F018F9FF23013BFDD1144C00212046F6
:103FB00007F010F9104B00930023ADF804304BF6D6
:103FC000FF73ADF806306923ADF808304FF4806315
:103FD000ADF80A304FF48043ADF80C306946204606
:103FE00007F046F80121204607F0B2F807B030BDCF
:103FF0000004024000540040801A060000580040AF
:104000000122014B5A707047682701200122014BA1
:104010009A7070476827012070B506460D46012446
:10402000204607F02BF90028FAD007F021F90446C2
:10403000012007F02DF9B4FBF5F005FB10403044EA
:1040400070BD00BFFEE700BFFEE700BF034A538B11
:104050009BB243F040035383F9E700BF000C0240DA
:10406000F0B587B007460121202000F061FDC02394
:10407000049302238DF814308DF8153000248DF848
:10408000164001268DF81760124D04A9284602F04B
:1040900051FE08220621284602F09AFE0822072136
:1040A000284602F095FE0097ADF80440ADF80640B2
:1040B000ADF80840ADF80C400C23ADF80A30064CC2
:1040C00069462046FEF70EFA31462046FEF76AFAA8
:1040D00007B0F0BD0008024000140140F8B50378B5
:1040E00013F0FF0F15D005460A4C274600E0354671
:1040F000238803F040039BB2002BF9D02E4616F81C
:10410000011B3846FEF75CFA2B786B7813F0FF0F33
:10411000EDD1F8BD00140140F0B587B003F040F9CF
:10412000FFF702FCFFF7B8FC09F0E6F902F09CFE8D
:10413000FFF78EFB4FF4E130FFF792FF012007F00D
:1041400087F8FFF76BFC644A136913F4805FFBD1B7
:10415000624C238B9BB243F040032383604A538B12
:104160009BB243F040035383538B9BB243F4807361
:1041700053833220FFF73CFBFFF7C4FB042011F010
:1041800093FDFFF78FFE002207213720FEF75CFD2D
:1041900003F07CFBFEF772FE524D002302220F213A
:1041A0002878FEF73FFE752210212878FEF76EFD75
:1041B0004D48FFF793FF00224C494D4806F050FB55
:1041C0004C4B1870638B9BB243F0400363834A4BA4
:1041D0001B6913F0400F20D100224449444806F0E7
:1041E0003FFB464B0093464B464A01214648FFF7AA
:1041F00073FA394B1B6913F4805F0ED1434F0026CD
:10420000354D3E60238B9BB243F008032383FFF7B9
:104210009FF82B6913F4805FF3D01DF035F86FF031
:104220007F401AF0F9F8012013F030FB11F032F85A
:1042300001214FF4807000F07BFC012504950323DD
:104240008DF8143002238DF8173004A9224802F0AB
:1042500071FDFFF7F7FD0024039402942C4B0193AA
:104260000726009623464FF480622A492A4801F027
:1042700077F803940294294B019306230093234675
:104280004FF480622649274801F06AF803940294AB
:10429000254B0193009623464FF48062234924481E
:1042A00001F05EF8234B00932B462A463221224828
:1042B00000F03AFD0646214B186001F03DFA0094EB
:1042C000234602462946304600F06CFD01F0F2F923
:1042D000204607B0F0BD00BF00040240000C0240C1
:1042E000001802406467012068840408C48604083A
:1042F000A84101206827012000100240040000208E
:104300004000002000010020E443012088670120D4
:104310005C390120387D040895E300084C37012002
:10432000984E03088D6B00080C3401207884040833
:10433000513700083537000884840408783201209A
:10434000684620F007018D4631B540F225512F48CF
:10435000FEF756F9002855D02C4B9B88DBB22A2B50
:1043600003D100222A4BDA704CE0212B44D1294D95
:104370000123002210212878FEF754FD264C2078D6
:104380006378303800EB8000303B03EB4000FEF7F1
:1043900033FFA078E378303800EB8000303B03EB4C
:1043A0004000FEF7FDFE20793038FEF7D5FE60793B
:1043B000A379303800EB8000303B03EB4000FEF780
:1043C0006FFEE079237A303800EB8000303B03EB5E
:1043D0004000FEF7E5FD607AA37A303800EB8000FC
:1043E000303B03EB4000FEF777FD00231A46102117
:1043F0002878FEF717FD05E00549CA78064883547A
:104400000132CA70BDE83140854670470014014052
:104410006827012064670120CC69012010B518B914
:104420000D48FFF7FBFF10BD01460C4B1C681CB983
:104430000B48FFF7F3FF10BD00232363074B5B68B6
:104440004BB9064B5860502204F2DC7028F016FE7F
:104450000123C4F8D43710BD8C84040874270120CC
:10446000B484040808B50A4B1B681A6B6AB1D86992
:10447000B0F57A7F04D30748FFF7D0FF002008BDCE
:1044800003EB800000F5036008BD002008BD00BFFD
:10449000742701202885040810B5062904D90F487F
:1044A000FFF7BCFF002010BD30B10D4B1A68531848
:1044B00093F86430834204D20A48FFF7AFFF00202C
:1044C00010BD531893F87440431E02EB4101B1F83C
:1044D0007C2004FB032080B210BD00BF508504087F
:1044E000742701209085040810B5062804D9554882
:1044F000FFF794FF002010BD534A02EB40031B89D5
:104500001A4492F8402042B94F49CC185A1C01EB8A
:104510004001897D521A84F840204B4A02EB400248
:10452000928C9A4205D202F071FBFFF777FF0020D0
:1045300010BD454AD11891F8401001339BB202EBEF
:1045400040042381E48A1B1B02EB4002528E9342FB
:1045500004DD3D4A02EB4002DBB2538606286FD8E9
:10456000DFE800F0041426386E4A5C00364B03EB9B
:10457000D10301F00700012202FA00F093F878203D
:1045800022EA000283F87820084610BD01F10B02F0
:104590002D4B03EBE20302F00702012000FA02F2C6
:1045A00093F8780020EA020283F87820084610BDCC
:1045B00001F11602244B03EBE20302F00702012093
:1045C00000FA02F293F8780020EA020283F87820D9
:1045D000084610BD01F121021B4B03EBE20302F080
:1045E0000702012000FA02F293F8780020EA0202A2
:1045F00083F87820084610BD01F13102124B03EB1D
:10460000E20302F00702012000FA02F293F87800B8
:1046100020EA020283F87820084610BD01F1340236
:10462000094B03EBE20302F00702012000FA02F259
:1046300093F8780020EA020283F87820084610BD3B
:10464000084610BDD08504087427012010B506283F
:1046500003D91448FFF7E2FE10BD31B1124B1B68BD
:10466000034493F864308B4203D21048FFF7D6FE20
:1046700010BD0D4A02EB40031B895C1E02EB400299
:10468000D28A944203DA0A48FFF7C8FE10BD013B04
:104690009BB2054A02EB40000381134483F84010AB
:1046A00010BD00BF14860408742701205886040832
:1046B0009886040838B51AB91748FFF7AFFE38BD19
:1046C000044608461546062C03D91448FFF7A6FEF3
:1046D00038BD19B91248FFF7A1FE38BD114B1B6850
:1046E000234493F864308B4205D2204602F08EFAC0
:1046F000FFF794FE38BD2146FFF7CEFE094B5B68FD
:104700004BB9084B1B681C44184494F86C2029468C
:104710008C3028F0B3FC38BDC8860408F88604083D
:10472000248704087427012008B5084B1B681A6BFE
:1047300052B15A6901325A61DA690132DA61B2F56D
:104740007A7F01D303F0FCF908BD00BF7427012074
:1047500030B583B0044600230193FF2808D04FF6FC
:10476000FF73984204D02848FFF758FE002049E024
:1047700001A806F09BFD019A244BD3F88000151A7E
:10478000C3F880201B68596AD9B18D420AD9B5FB9C
:10479000F1F2D86A1044D86201FB12519A6A1144AE
:1047A000996202E09A6A2A449A62184B1B689A6AD4
:1047B000596A8A4206D3D86A0130D862521A9A627C
:1047C00000E09A62A5421BD9FFF74CFEC0B14FF63C
:1047D000FF72944206D1A92202702A0C4280002264
:1047E00042700BE0FF2C06D1A82202702A0A4280F8
:1047F0002A0E427002E00648FFF710FEFFF794FF12
:1048000005EA040003B030BDA8870408742701201E
:10481000E88704082DE9F04728B92248FFF7FEFD94
:104820000020BDE8F087904681464AB11E4A1568CF
:1048300001F56A7135F8114044B90020BDE8F087F0
:104840001A48FFF7EBFD0020BDE8F0871F0ADEB233
:10485000A2462B1993F83234B34212D12B1993F894
:104860003334BB420DD1201D2B18434493F8303410
:104870003BB904F2344042464946284428F0AEFB96
:1048800068B105EB0A0292F8314492F8303403EB38
:104890000424A4B2002CDBD10020BDE8F087204620
:1048A000BDE8F0870C8804087427012048880408B4
:1048B000F8B520B92248FFF7B1FD0020F8BD144635
:1048C000864622B91F48FFF7A9FD0020F8BD1E4A01
:1048D0001068D0F82C24151D6719B7F5487F04D34C
:1048E0001A48FFF79BFD0020F8BD01F56A7630F805
:1048F0001670024482F830743F0A82F8317482F8EC
:1049000032341B0A82F8333405F586652246714637
:10491000284428F0B3FB0C4B1B68D3F82C24A018B8
:104920001918002581F8345423F816200530C3F8EF
:104930002C04C4F57F44FB340444A0B2F8BD00BF8E
:1049400080880408BC88040874270120F4880408BF
:1049500038B518B91048FFF761FD38BD19B90F48CF
:10496000FFF75CFD38BD1AB90D48FFF757FD38BD9C
:10497000451C037843B1002001241844013415F884
:10498000013B002BF9D101E00020012400F03F00A1
:104990000870147038BD00BF3489040868890408A1
:1049A0009889040870B582B000238DF807308DF81F
:1049B000063020B91A48FFF731FD00202EE00E46E0
:1049C00004460DF107020DF10601FFF7C1FFEFF3F9
:1049D0001085012383F31088124AD2F88430013302
:1049E000C2F8843033469DF807209DF80610204613
:1049F000FFF710FF034640B933469DF807209DF8A6
:104A000006102046FFF754FF03460649D1F88420DC
:104A1000013AC1F8842085F31088184602B070BDB1
:104A2000CC8904087427012010B4224B9B6803F042
:104A30000C03042B05D0082B06D0EBB91E4B0360EA
:104A40001CE01D4B036019E01A4B5A685B6803F0C9
:104A50003F03184A5268C2F388121749B1FBF3F3B7
:104A600003FB02F2134B5B68C3F3014301335B00AA
:104A7000B2FBF3F3036001E00F4B03600D4CA3683E
:104A8000C3F303130D49CB5CDAB20368D340436030
:104A9000A268C2F382228A5CD2B223FA02F2826056
:104AA000A268C2F342328A5CD2B2D340C3605DF8DE
:104AB000044B7047003802400024F400A00000209E
:104AC00021B1054B1A6B104318637047024A136BF0
:104AD00023EA0000106370470038024021B1054B03
:104AE0005A6B104358637047024A536B23EA000025
:104AF000506370470038024021B1054B9A6B104358
:104B000098637047024A936B23EA000090637047F2
:104B10000038024021B1054B1A6C104318647047ED
:104B2000024A136C23EA0000106470470038024008
:104B300021B1054B5A6C104358647047024A536CBC
:104B400023EA0000506470470038024021B1054B51
:104B50001A6A104318627047024A136A23EA000077
:104B6000106270470038024021B1054B5A6A104369
:104B700058627047024A536A23EA00005062704745
:104B800000380240FEE700BF80B582B0DFF8308019
:104B9000FF27042602250195002400943B460522A8
:104BA0003146404602F006FB019500943B46062242
:104BB0003146024802F0FEFAECE700BF088A04081A
:104BC000FC89040880B582B0DFF830804FF47F079D
:104BD000042601250195002400943B460922314614
:104BE000404602F0E7FA019500943B460A2231461E
:104BF000014802F0DFFAECE7208A0408148A04086E
:104C0000FEE700BFFEE700BF704700BF08B50648DB
:104C1000FBF714FE18B1044809F08AFE08BD0248EB
:104C200004F08AF908BD00BFE443012008B503F091
:104C300045F808BD08B54160006191420AD8D21A12
:104C400083699A4211D2011D0A4B186802F07CFB5D
:104C5000002008BD9A4201D2994208D2011D054B9D
:104C6000586802F071FB002008BD012008BD01203A
:104C700008BD00BF2028012070B504F021F8134BB7
:104C80009B68FBB9114C04F10C06304602F040FB66
:104C900004F12005284602F03BFB666025600022F7
:104CA0000C210A2003F082FBA06040B94FF0F00312
:104CB00083F31188BFF36F8FBFF34F8FFEE7044973
:104CC00003F060FF04F01EF870BD00BF2028012033
:104CD000308A040800B585B0FFF7CEFF0E4B9B6805
:104CE0006BB10023039302930C4A01920B220092B2
:104CF0004FF400720A490B4800F032FB40B94FF004
:104D0000F00383F31188BFF36F8FBFF34F8FFEE77C
:104D100005B05DF804FB00BF2028012054280120C5
:104D2000388A0408114F000879B32DE9F0410F4685
:104D30001D46164680462C20FBF70CFB0446D8B1D6
:104D4000FFF79AFFC4F80080A761E6612562069B21
:104D50006362201D02F0E8FA0520FFF7C5FB01465B
:104D6000A06222680520FFF7A5FC94F82820052101
:104D7000B020FCF753F911E0002393F82820052117
:104D8000B920FCF74BF909E0FEE74FF0F00383F39D
:104D90001188BFF36F8FBFF34F8FF5E72046BDE853
:104DA000F08100BF2DE9F04184B0304DAE68002E97
:104DB00057D01D4690460C4607460191029203903B
:104DC00005290EDC00F0C4FF02284FF000030CBFE1
:104DD0000A9A1A4601A92548806803F047FB054650
:104DE00006E000232A4601A9304603F0CFFC054621
:104DF000002C37DD042C0BD1012D434697F82820D9
:104E00004FF005010CBFB420BD20FCF771F929E07B
:104E1000052C17D1012D1BD197F828200521B5208D
:104E2000FCF7FCF8052197F82800FCF72DFA05217E
:104E300097F82800FCF756FA97F828100520FFF796
:104E400005FC0FE0B034012D0CBF0020092001E06B
:104E5000B524092097F8282005212044FCF7DEF826
:104E600000E00025284604B0BDE8F081202801209C
:104E70002DE9F04782B0074600F05EFC0646234B62
:104E80009B6B98423AD22BE0DB68D3F800A0DC6839
:104E900004F10409484602F071FA636A2046984713
:104EA000E369012B1FD1A36953449A4506D263607D
:104EB00024614946686802F047FA14E0CDF80080A2
:104EC0004346524641462046FFF76CFF58B94FF023
:104ED000F00383F31188BFF36F8FBFF34F8FFEE7AB
:104EE0000A4D4FF000086B681A68002ACCD1074AB7
:104EF00011685160136001233B6001E000233B60B7
:104F0000024B9E63304602B0BDE8F08720280120A6
:104F10002DE9F04387B05D4C0026DFF874816368AB
:104F20001A68002A00F0A880DB681F6800F0FAFB0E
:104F300003A8FFF79DFF0546039B002B40D1874246
:104F40002ED800F09BFC6368DB68D3F80C9009F165
:104F5000040002F013FAD9F81C30012B1AD1D9F849
:104F600018103B462A4639444846FFF763FE01289D
:104F700010D1009633463A4631464846FFF712FFB5
:104F800040B94FF0F00383F31188BFF36F8FBFF385
:104F90004F8FFEE7D9F824304846984712E037464D
:104FA000791BA06803F016FE00F068FC50B94FF0C2
:104FB0008053C8F80030BFF34F8FBFF36F8F01E00D
:104FC00000F05CFC03AD4EE0039B002B4BDB059F28
:104FD0007B6913B1381D02F0D1F902A8FFF748FF31
:104FE000039B092B3FD8DFE803F00505053E283B6E
:104FF00005053E2804990B460246B8690144384627
:10500000FFF718FE01282ED17B6A38469847FB69C6
:10501000012B28D1BA690096334604990A443146D7
:105020003846FFF7BFFEF0B94FF0F00383F3118865
:10503000BFF36F8FBFF34F8FFEE70499B96141B99A
:105040004FF0F00383F31188BFF36F8FBFF34F8FDF
:10505000FEE70346024601443846FFF7EBFD02E057
:105060003846FBF71BFA334632462946A06803F060
:105070002BFC0028A8D152E700F054FB03A8FFF74F
:10508000F7FE0546039B002B89D099E720280120D5
:1050900004ED00E010B4436823F0407222F4807203
:1050A0000B6813430A7943EA0223436084680A6960
:1050B000CB681A438B681A43094B234013434A7940
:1050C00043EA42038360C36A23F470020B7D013B11
:1050D000DBB242EA0353C3625DF8044B704700BF82
:1050E000FDF7FFC000230360037143718360C36059
:1050F000036101230375704710B4084C6268084BC4
:10510000134001684268114382681143C2680A4330
:10511000134363605DF8044B704700BF00230140F8
:10512000E030FCFF21B1836843F0010383607047E6
:10513000836823F001038360704700BF70B40929BE
:105140000DD9C668A1F10A0404EB44040725A54063
:1051500026EA050503FA04F42C43C4600AE0066954
:1051600001EB41040725A54026EA050503FA04F4EE
:105170002C430461062A0CD8446B013A02EB8202EC
:105180001F23934024EA030301FA02F21A43426305
:105190001AE00C2A0CD8046B073A02EB82021F2398
:1051A000934024EA030301FA02F21A4302630BE07C
:1051B000C46A0D3A02EB82021F23934024EA0303E0
:1051C00001FA02F21A43C26270BC7047836843F06E
:1051D00080438360704700BF21B1836843F48063DC
:1051E00083607047836823F480638360704700BFE7
:1051F000C06C80B2704700BF0368194214BF012021
:1052000000207047002070470020704700B583B031
:1052100031238DF8043000238DF805308DF80630E9
:1052200001238DF8073001A806F076F807F026F87C
:10523000003018BF0120404203B05DF804FB00BFFE
:1052400038B50C46154607F0C9FE50B94FF4007347
:105250002B60054A936CD26C5B0A43EAC25323600D
:1052600000E0FF2040B238BDC00D002008B50A4B59
:1052700093F90030002B04DA07F000F80022064B07
:105280001A7007F0ABFE18B1FF20034B187000E056
:10529000002040B208BD00BF5C28012000B583B0EB
:1052A00001934FF4007300930023084607F0FCF9C4
:1052B00020B907F093FE0028FBD100E0FF2040B2A8
:1052C00003B05DF804FB00BF00B583B001934FF459
:1052D000007300930023084607F090FB20B907F005
:1052E0007DFE0028FBD100E0FF2040B203B05DF856
:1052F00004FB00BF084B9B6A1B6823B94FF0FF32C9
:10530000064B1A607047044B9B6ADB68DB685A687F
:10531000024B1A60704700BF64280120D4000020AF
:1053200010B50D4BDA6A50601B6B984206D20A4BDF
:10533000586BD96A043102F007F810BD0446064BD9
:10534000986AD96A043101F0FFFF044B1B689C4244
:105350003CBF024B1C6010BD64280120D40000201B
:105360002DE9F04F83B00C9FDDF834B00E9C40B9AE
:105370004FF0F00383F31188BFF36F8FBFF34F8FAC
:10538000FEE70B2F08D94FF0F00383F31188BFF32A
:105390006F8FBFF34F8FFEE70190994615460E467B
:1053A000A0462CB99000FAF7D5FF804600B9A1E0DD
:1053B0005C20FAF7CFFF0446A0B1C0F83080AA0005
:1053C000A521404627F09AFC05F18045013D236B5D
:1053D00003EB850525F00705337884F834303378FE
:1053E00023B90FE04046FBF759F883E0334604F158
:1053F00034020F3613F8011F02F8011F197809B1A2
:105400009E42F7D14FF0000884F843803E460B2FB0
:1054100028BF0B26E662E664C4F8508004F1040A53
:10542000504601F081FF04F1180001F07DFF246176
:10543000C6F10C06A6616462C4F8548084F85880F2
:105440004A460199284603F017FC2060BBF1000F83
:1054500001D0CBF8004003F033FC4C4B9A6B013287
:105460009A63DB6A4BBB494BDC629B6B012B49D1D6
:10547000464B03F13C0603F59675304601F048FFB4
:105480001436AE42F9D1414D05F59678404601F00B
:105490003FFF05F5A076304601F03AFF05F1140014
:1054A00001F036FF05F5AA7001F032FF284601F041
:1054B0002FFFC5F828806E6324E0344BD3F86831A1
:1054C00003BB324BDB6ADB6A9F421BD32F4BDC6290
:1054D00018E02E4BDB6ADB6A9F4209D94FF08052FD
:1054E0002B4B1A60BFF34F8FBFF36F8F01204AE041
:1054F000012048E0002203214320FBF78FFD4FF0FD
:10550000FF3040E0214DD5F86C310133C5F86C31E6
:1055100063640320FEF7E8FFA064204601F06CFB03
:1055200004F1340201460320FFF7C4F8204601F0DD
:1055300063FB94F82C2001460320FBF717FF20465D
:1055400001F05AFB024603211B20FBF767FD2046B2
:1055500001F052FBFBF7B4FCE36A0E4842680121FC
:1055600099400A43426005F13C0003EB8303514636
:1055700000EB830001F0DCFE03F0C4FBD5F86831DA
:10558000002BA6D1012003B0BDE8F08F64280120D4
:1055900004ED00E0D400002070B5044603F090FB59
:1055A0000CB9414BDC6A261D304601F0E7FE70B9AC
:1055B000E16A01EB81023C4B03EB8203DB6B33B905
:1055C0003A48436801228A4023EA02034360A36AFF
:1055D0001BB104F1180001F0D1FE334D314605F541
:1055E000AA7001F0A5FED5F870310133C5F870310D
:1055F000D5F86C310133C5F86C31EFF31086012317
:1056000083F31088204601F0F7FA02460321832035
:10561000FBF704FD204601F0EFFA0321FBF734FE0F
:10562000204601F0E9FA0321FBF75CFE204601F079
:10563000E3FA94F82C2001460320FBF797FE20465E
:1056400001F0DAFA002201460320FBF7E1FE2046D2
:1056500001F0D2FA01460320FEF7F8FF86F3108826
:1056600003F050FBD5F86831EBB1EB6A9C4214D1E2
:10567000D5F8743143B14FF0F00383F31188BFF3D1
:105680006F8FBFF34F8FFEE74FF08052084B1A60C9
:10569000BFF34F8FBFF36F8F70BD03F011FBFFF7A8
:1056A00029FE03F02FFB70BD64280120D4000020E8
:1056B00004ED00E000B585B000230393029301934D
:1056C000012200924FF4007213491448FFF748FE7C
:1056D000012814D1FFF7FEFA012810D14FF0F00392
:1056E00083F31188BFF36F8FBFF34F8F0C4B0122F1
:1056F000C3F8682100221A6303F078FB09E040B97F
:105700004FF0F00383F31188BFF36F8FBFF34F8F18
:10571000FEE705B05DF804FB648A0408115A00082E
:1057200064280120034AD2F874310133C2F874317D
:10573000704700BF64280120014B186B704700BF01
:10574000642801202DE9F047494BD3F87431012B2F
:1057500003D0474BD3F8783133B9464A1368013345
:105760001360002005F0A2FD414BD3F87421D3F85B
:105770007431002B6CD13E4B1A6B01321A631F6BD4
:10578000BFB99B6A1B6843B14FF0F00383F31188E4
:10579000BFF36F8FBFF34F8FFEE7354B9A6A596B9C
:1057A00099625A63D3F87C210132C3F87C21FFF758
:1057B000A1FD314B1B689F4201D200243CE0002434
:1057C0002B4EDFF8B48006F13C0AB36A1B6823B99C
:1057D0004FF0FF32284B1A602EE0B36ADB68DD68B9
:1057E0006B689F4202D2244A136025E005F1040948
:1057F000484601F0C3FDAB6A1BB105F1180001F08A
:10580000BDFD284601F0F8F9FBF75AFBE86AD8F825
:105810000430012282401343C8F8043000EB8000BA
:1058200049460AEB800001F083FDF36AEA6ADB6A0D
:105830009A4228BF0124C8E70D4BDA6AD26A02EB0C
:10584000820203EB8203DB6B022B28BF012406E0FC
:10585000074AD2F878310133C2F878310024044B7A
:10586000D3F88031002B0CBF20460120BDE8F08723
:1058700064280120682C0120D40000203D4BD3F87F
:10588000743143B94FF0F00383F31188BFF36F8F86
:10589000BFF34F8FFEE72DE9F04103F011FA354BCE
:1058A000D3F87421013AC3F87421D3F87431002B72
:1058B00057D1304B9B6B33BB002455E0236ADD6826
:1058C00005F1180001F05AFD2F1D384601F056FD74
:1058D000284601F091F9FBF7F3FAE86A73680122B0
:1058E00082401343736000EB8000394608EB800070
:1058F00001F01EFDE36AEA6ADB6A9A4207D30123DC
:10590000C4F8803103E01B4C1B4E04F13C08636972
:10591000002BD3D1174BD3F878319BB1154BD3F86B
:1059200078317BB1134C0125FFF70CFF08B1C4F8A7
:105930008051D4F87831013BC4F87831D4F878310B
:10594000002BF1D10B4BD3F88031012B0BD14FF051
:1059500080520A4B1A60BFF34F8FBFF36F8F012441
:1059600002E0002400E0002403F0CCF92046BDE86A
:10597000F08100BF64280120D400002004ED00E085
:1059800038B5002835D004461E4BD3F8743143B1E6
:105990004FF0F00383F31188BFF36F8FBFF34F8F86
:1059A000FEE7FFF7BFFE21468920FBF717FC154DE8
:1059B000E86A01F021F9FBF7D7FD01F023F901F0C6
:1059C0001BF9FBF7D1FD2B6B1C44E86A043001F096
:1059D000D5FC40B9EA6A0C494B68D06A0122824082
:1059E00023EA02034B602046FFF79AFCFFF746FFCD
:1059F00038B94FF08052054B1A60BFF34F8FBFF399
:105A00006F8F38BD64280120D400002004ED00E031
:105A100008B5144C1EE0FFF785FED4F85451FFF78B
:105A20002DFFBDB103F04CF9D4F86031DD68281DBD
:105A300001F0A4FCA36B013BA363D4F87031013BDC
:105A4000C4F8703103F05EF9286BFAF727FD284699
:105A5000FAF724FDD4F87031002BDCD1FEF7F4FA0C
:105A6000F8E700BF64280120294BD3F8743123B133
:105A70000122274BC3F88021704710B5244B002228
:105A8000C3F88021DA6ADB6A12681B6B9A4205D878
:105A90001F4BD86AD96A3431FEF7D8FA1D4B5B68C0
:105AA000B3FA83F3DBB2C3F11F0303EB8301184A9C
:105AB00002EB8102D26B42B94FF0F00383F31188FD
:105AC000BFF36F8FBFF34F8FFEE7114A9900C818DD
:105AD00002EB8000046C6468046402464432944221
